:0400000027EF05F0F1
:1008000000342D626974206D6F646500382D626953
:0F08100074206D6F6465005961797921210000B2
:1008200006500710D8A417EF04F019EF04F043EFB7
:1008300004F0C30E046ECD0EE82EFED7042EFCD7B6
:100840000000000E016E330ECFEC04F01B0E046EA0
:100850009E0EE82EFED7042EFCD700D0000E016EAF
:10086000330ECFEC04F0A60EE82EFED700D0000E1B
:10087000016E330ECFEC04F000D000D000003AEC53
:1008800005F072EF04F006040710D8A44AEF04F054
:100890004CEF04F072EF04F0C30E046ECD0EE82EA0
:1008A000FED7042EFCD70000000E016E330ECFECF5
:1008B00004F01B0E046E9E0EE82EFED7042EFCD70D
:1008C00000D0000E016E330ECFEC04F0A60EE82E21
:1008D000FED700D0000E016E330ECFEC04F000D036
:1008E00000D00000000E016E280ECFEC04F0A60E22
:1008F000E82EFED700D0000E016E010ECFEC04F002
:10090000040E046E3E0EE82EFED7042EFCD7000E19
:10091000016E0C0ECFEC04F0A60EE82EFED700D030
:10092000120044EC05F081A498EF04F09AEF04F073
:10093000B2EF04F0000E076E010E066E52EC05F0E9
:100940000C0E046E820E056E0AEC05F0170E046E96
:10095000C40E056E0AEC05F0000E076E000E066E62
:1009600093EF04F081B2B7EF04F0B9EF04F093EF26
:1009700004F0000E076E000E066E52EC05F0010E3C
:10098000046E820E056E0AEC05F0170E046EC40E9E
:10099000056E0AEC05F0B0EF04F000EF00F0036E16
:1009A00001B002D0849401D0848406500710D8A4EA
:1009B000DCEF04F0DEEF04F0F0EF04F00350F00B96
:1009C000836E8482A60EE82EFED700D0849203C0E8
:1009D00002F00F0E02160238F00B836EFBEF04F0EC
:1009E00006040710D8A4F7EF04F0F9EF04F0FBEFCA
:1009F00004F003C083FF8482A60EE82EFED700D049
:100A000084921B0E026E9E0EE82EFED7022EFCD79D
:100A100000D01200000E016E0550CFEC04F01AEF6A
:100A200005F0010E016E04C0F6FF0800F550CFEC92
:100A300004F0042A04C0F6FF0800F5500009D8A409
:100A400024EF05F026EF05F011EF05F01200AA0ED5
:100A5000F66E0A0EF76E000EF86E0900F5CF06F07E
:100A60000900F5CF07F0000EF86E080EF76E0001D2
:100A700091EF04F0000E016E020ECFEC04F0A60E12
:100A8000E82EFED700D012004EEC05F049EC05F040
:100A9000120093849382818481821200956A9694D5
:0C0AA0009692120010EC04F0120001000D
:020000040030CA
:0E000000210C181EFF8180FF0FC00FE00F4083
:00000001FF
